{
    "_format": "hh-sol-artifact-1",
    "contractName": "MonkeMint",
    "sourceName": "contracts/MonkeMint.sol",
    "abi": [
        {
            "inputs": [
                {
                    "internalType": "string",
                    "name": "_baseURI",
                    "type": "string"
                }
            ],
            "stateMutability": "nonpayable",
            "type": "constructor"
        },
        {
            "anonymous": false,
            "inputs": [
                {
                    "indexed": true,
                    "internalType": "address",
                    "name": "owner",
                    "type": "address"
                },
                {
                    "indexed": true,
                    "internalType": "address",
                    "name": "approved",
                    "type": "address"
                },
                {
                    "indexed": true,
                    "internalType": "uint256",
                    "name": "tokenId",
                    "type": "uint256"
                }
            ],
            "name": "Approval",
            "type": "event"
        },
        {
            "anonymous": false,
            "inputs": [
                {
                    "indexed": true,
                    "internalType": "address",
                    "name": "owner",
                    "type": "address"
                },
                {
                    "indexed": true,
                    "internalType": "address",
                    "name": "operator",
                    "type": "address"
                },
                {
                    "indexed": false,
                    "internalType": "bool",
                    "name": "approved",
                    "type": "bool"
                }
            ],
            "name": "ApprovalForAll",
            "type": "event"
        },
        {
            "anonymous": false,
            "inputs": [
                {
                    "indexed": false,
                    "internalType": "address",
                    "name": "buyer",
                    "type": "address"
                },
                {
                    "indexed": false,
                    "internalType": "uint256",
                    "name": "_tokenId",
                    "type": "uint256"
                }
            ],
            "name": "MonkeMinted",
            "type": "event"
        },
        {
            "anonymous": false,
            "inputs": [
                {
                    "indexed": true,
                    "internalType": "address",
                    "name": "previousOwner",
                    "type": "address"
                },
                {
                    "indexed": true,
                    "internalType": "address",
                    "name": "newOwner",
                    "type": "address"
                }
            ],
            "name": "OwnershipTransferred",
            "type": "event"
        },
        {
            "anonymous": false,
            "inputs": [
                {
                    "indexed": true,
                    "internalType": "address",
                    "name": "from",
                    "type": "address"
                },
                {
                    "indexed": true,
                    "internalType": "address",
                    "name": "to",
                    "type": "address"
                },
                {
                    "indexed": true,
                    "internalType": "uint256",
                    "name": "tokenId",
                    "type": "uint256"
                }
            ],
            "name": "Transfer",
            "type": "event"
        },
        {
            "inputs": [],
            "name": "actualSupply",
            "outputs": [
                {
                    "internalType": "uint256",
                    "name": "",
                    "type": "uint256"
                }
            ],
            "stateMutability": "view",
            "type": "function"
        },
        {
            "inputs": [
                {
                    "internalType": "address",
                    "name": "to",
                    "type": "address"
                },
                {
                    "internalType": "uint256",
                    "name": "tokenId",
                    "type": "uint256"
                }
            ],
            "name": "approve",
            "outputs": [],
            "stateMutability": "nonpayable",
            "type": "function"
        },
        {
            "inputs": [
                {
                    "internalType": "address",
                    "name": "owner",
                    "type": "address"
                }
            ],
            "name": "balanceOf",
            "outputs": [
                {
                    "internalType": "uint256",
                    "name": "",
                    "type": "uint256"
                }
            ],
            "stateMutability": "view",
            "type": "function"
        },
        {
            "inputs": [],
            "name": "baseURI",
            "outputs": [
                {
                    "internalType": "string",
                    "name": "",
                    "type": "string"
                }
            ],
            "stateMutability": "view",
            "type": "function"
        },
        {
            "inputs": [
                {
                    "internalType": "uint256",
                    "name": "tokenId",
                    "type": "uint256"
                }
            ],
            "name": "getApproved",
            "outputs": [
                {
                    "internalType": "address",
                    "name": "",
                    "type": "address"
                }
            ],
            "stateMutability": "view",
            "type": "function"
        },
        {
            "inputs": [
                {
                    "internalType": "address",
                    "name": "owner",
                    "type": "address"
                },
                {
                    "internalType": "address",
                    "name": "operator",
                    "type": "address"
                }
            ],
            "name": "isApprovedForAll",
            "outputs": [
                {
                    "internalType": "bool",
                    "name": "",
                    "type": "bool"
                }
            ],
            "stateMutability": "view",
            "type": "function"
        },
        {
            "inputs": [],
            "name": "maxMintAmount",
            "outputs": [
                {
                    "internalType": "uint256",
                    "name": "",
                    "type": "uint256"
                }
            ],
            "stateMutability": "view",
            "type": "function"
        },
        {
            "inputs": [],
            "name": "maxToken",
            "outputs": [
                {
                    "internalType": "uint256",
                    "name": "",
                    "type": "uint256"
                }
            ],
            "stateMutability": "view",
            "type": "function"
        },
        {
            "inputs": [
                {
                    "internalType": "uint256",
                    "name": "_mintAmount",
                    "type": "uint256"
                }
            ],
            "name": "mintMonke",
            "outputs": [],
            "stateMutability": "payable",
            "type": "function"
        },
        {
            "inputs": [],
            "name": "name",
            "outputs": [
                {
                    "internalType": "string",
                    "name": "",
                    "type": "string"
                }
            ],
            "stateMutability": "view",
            "type": "function"
        },
        {
            "inputs": [],
            "name": "owner",
            "outputs": [
                {
                    "internalType": "address",
                    "name": "",
                    "type": "address"
                }
            ],
            "stateMutability": "view",
            "type": "function"
        },
        {
            "inputs": [
                {
                    "internalType": "uint256",
                    "name": "tokenId",
                    "type": "uint256"
                }
            ],
            "name": "ownerOf",
            "outputs": [
                {
                    "internalType": "address",
                    "name": "",
                    "type": "address"
                }
            ],
            "stateMutability": "view",
            "type": "function"
        },
        {
            "inputs": [],
            "name": "renounceOwnership",
            "outputs": [],
            "stateMutability": "nonpayable",
            "type": "function"
        },
        {
            "inputs": [
                {
                    "internalType": "address",
                    "name": "from",
                    "type": "address"
                },
                {
                    "internalType": "address",
                    "name": "to",
                    "type": "address"
                },
                {
                    "internalType": "uint256",
                    "name": "tokenId",
                    "type": "uint256"
                }
            ],
            "name": "safeTransferFrom",
            "outputs": [],
            "stateMutability": "nonpayable",
            "type": "function"
        },
        {
            "inputs": [
                {
                    "internalType": "address",
                    "name": "from",
                    "type": "address"
                },
                {
                    "internalType": "address",
                    "name": "to",
                    "type": "address"
                },
                {
                    "internalType": "uint256",
                    "name": "tokenId",
                    "type": "uint256"
                },
                {
                    "internalType": "bytes",
                    "name": "_data",
                    "type": "bytes"
                }
            ],
            "name": "safeTransferFrom",
            "outputs": [],
            "stateMutability": "nonpayable",
            "type": "function"
        },
        {
            "inputs": [
                {
                    "internalType": "address",
                    "name": "operator",
                    "type": "address"
                },
                {
                    "internalType": "bool",
                    "name": "approved",
                    "type": "bool"
                }
            ],
            "name": "setApprovalForAll",
            "outputs": [],
            "stateMutability": "nonpayable",
            "type": "function"
        },
        {
            "inputs": [
                {
                    "internalType": "bytes4",
                    "name": "interfaceId",
                    "type": "bytes4"
                }
            ],
            "name": "supportsInterface",
            "outputs": [
                {
                    "internalType": "bool",
                    "name": "",
                    "type": "bool"
                }
            ],
            "stateMutability": "view",
            "type": "function"
        },
        {
            "inputs": [],
            "name": "symbol",
            "outputs": [
                {
                    "internalType": "string",
                    "name": "",
                    "type": "string"
                }
            ],
            "stateMutability": "view",
            "type": "function"
        },
        {
            "inputs": [
                {
                    "internalType": "uint256",
                    "name": "tokenId",
                    "type": "uint256"
                }
            ],
            "name": "tokenURI",
            "outputs": [
                {
                    "internalType": "string",
                    "name": "",
                    "type": "string"
                }
            ],
            "stateMutability": "view",
            "type": "function"
        },
        {
            "inputs": [
                {
                    "internalType": "address",
                    "name": "from",
                    "type": "address"
                },
                {
                    "internalType": "address",
                    "name": "to",
                    "type": "address"
                },
                {
                    "internalType": "uint256",
                    "name": "tokenId",
                    "type": "uint256"
                }
            ],
            "name": "transferFrom",
            "outputs": [],
            "stateMutability": "nonpayable",
            "type": "function"
        },
        {
            "inputs": [
                {
                    "internalType": "address",
                    "name": "newOwner",
                    "type": "address"
                }
            ],
            "name": "transferOwnership",
            "outputs": [],
            "stateMutability": "nonpayable",
            "type": "function"
        },
        {
            "inputs": [],
            "name": "withdraw",
            "outputs": [],
            "stateMutability": "nonpayable",
            "type": "function"
        }
    ],
    "bytecode": "0x608060405267011c37937e080000600a556064600b556002600c553480156200002757600080fd5b5060405162003bc438038062003bc483398181016040528101906200004d91906200034a565b6040518060400160405280600581526020017f4d6f6e6b650000000000000000000000000000000000000000000000000000008152506040518060400160405280600381526020017f4d4b4500000000000000000000000000000000000000000000000000000000008152508160009080519060200190620000d192919062000228565b508060019080519060200190620000ea92919062000228565b5050506200010d620001016200014460201b60201c565b6200014c60201b60201c565b80600990805190602001906200012592919062000228565b506200013d60086200021260201b6200136d1760201c565b50620004c0565b600033905090565b6000600760009054906101000a900473ffffffffffffffffffffffffffffffffffffffff16905081600760006101000a81548173ffffffffffffffffffffffffffffffffffffffff021916908373ffffffffffffffffffffffffffffffffffffffff1602179055508173ffffffffffffffffffffffffffffffffffffffff168173ffffffffffffffffffffffffffffffffffffffff167f8be0079c531659141344cd1fd0a4f28419497f9722a3daafe3b4186f6b6457e060405160405180910390a35050565b6001816000016000828254019250508190555050565b82805462000236906200042c565b90600052602060002090601f0160209004810192826200025a5760008555620002a6565b82601f106200027557805160ff1916838001178555620002a6565b82800160010185558215620002a6579182015b82811115620002a557825182559160200191906001019062000288565b5b509050620002b59190620002b9565b5090565b5b80821115620002d4576000816000905550600101620002ba565b5090565b6000620002ef620002e984620003c3565b6200038f565b9050828152602081018484840111156200030857600080fd5b62000315848285620003f6565b509392505050565b600082601f8301126200032f57600080fd5b815162000341848260208601620002d8565b91505092915050565b6000602082840312156200035d57600080fd5b600082015167ffffffffffffffff8111156200037857600080fd5b62000386848285016200031d565b91505092915050565b6000604051905081810181811067ffffffffffffffff82111715620003b957620003b862000491565b5b8060405250919050565b600067ffffffffffffffff821115620003e157620003e062000491565b5b601f19601f8301169050602081019050919050565b60005b8381101562000416578082015181840152602081019050620003f9565b8381111562000426576000848401525b50505050565b600060028204905060018216806200044557607f821691505b602082108114156200045c576200045b62000462565b5b50919050565b7f4e487b7100000000000000000000000000000000000000000000000000000000600052602260045260246000fd5b7f4e487b7100000000000000000000000000000000000000000000000000000000600052604160045260246000fd5b6136f480620004d06000396000f3fe6080604052600436106101355760003560e01c806370a08231116100ab578063b88d4fde1161006f578063b88d4fde146103f3578063c87b56dd1461041c578063ca69e32314610459578063d9c905b814610484578063e985e9c5146104af578063f2fde38b146104ec57610135565b806370a0823114610320578063715018a61461035d5780638da5cb5b1461037457806395d89b411461039f578063a22cb465146103ca57610135565b8063239c70ae116100fd578063239c70ae1461022457806323b872dd1461024f5780633ccfd60b1461027857806342842e0e1461028f5780636352211e146102b85780636c0360eb146102f557610135565b806301ffc9a71461013a57806306fdde0314610177578063081812fc146101a2578063095ea7b3146101df57806322aebd2f14610208575b600080fd5b34801561014657600080fd5b50610161600480360381019061015c91906124d8565b610515565b60405161016e9190612f08565b60405180910390f35b34801561018357600080fd5b5061018c6105f7565b6040516101999190612f23565b60405180910390f35b3480156101ae57600080fd5b506101c960048036038101906101c4919061252a565b610689565b6040516101d69190612e78565b60405180910390f35b3480156101eb57600080fd5b506102066004803603810190610201919061249c565b61070e565b005b610222600480360381019061021d919061252a565b610826565b005b34801561023057600080fd5b506102396109cb565b6040516102469190613218565b60405180910390f35b34801561025b57600080fd5b5061027660048036038101906102719190612396565b6109d1565b005b34801561028457600080fd5b5061028d610a31565b005b34801561029b57600080fd5b506102b660048036038101906102b19190612396565b610b2d565b005b3480156102c457600080fd5b506102df60048036038101906102da919061252a565b610b4d565b6040516102ec9190612e78565b60405180910390f35b34801561030157600080fd5b5061030a610bff565b6040516103179190612f23565b60405180910390f35b34801561032c57600080fd5b5061034760048036038101906103429190612331565b610c8d565b6040516103549190613218565b60405180910390f35b34801561036957600080fd5b50610372610d45565b005b34801561038057600080fd5b50610389610dcd565b6040516103969190612e78565b60405180910390f35b3480156103ab57600080fd5b506103b4610df7565b6040516103c19190612f23565b60405180910390f35b3480156103d657600080fd5b506103f160048036038101906103ec9190612460565b610e89565b005b3480156103ff57600080fd5b5061041a600480360381019061041591906123e5565b61100a565b005b34801561042857600080fd5b50610443600480360381019061043e919061252a565b61106c565b6040516104509190612f23565b60405180910390f35b34801561046557600080fd5b5061046e6111be565b60405161047b9190613218565b60405180910390f35b34801561049057600080fd5b506104996111c4565b6040516104a69190613218565b60405180910390f35b3480156104bb57600080fd5b506104d660048036038101906104d1919061235a565b6111e1565b6040516104e39190612f08565b60405180910390f35b3480156104f857600080fd5b50610513600480360381019061050e9190612331565b611275565b005b60007f80ac58cd000000000000000000000000000000000000000000000000000000007bffffffffffffffffffffffffffffffffffffffffffffffffffffffff1916827bffffffffffffffffffffffffffffffffffffffffffffffffffffffff191614806105e057507f5b5e139f000000000000000000000000000000000000000000000000000000007bffffffffffffffffffffffffffffffffffffffffffffffffffffffff1916827bffffffffffffffffffffffffffffffffffffffffffffffffffffffff1916145b806105f057506105ef82611383565b5b9050919050565b606060008054610606906134c2565b80601f0160208091040260200160405190810160405280929190818152602001828054610632906134c2565b801561067f5780601f106106545761010080835404028352916020019161067f565b820191906000526020600020905b81548152906001019060200180831161066257829003601f168201915b5050505050905090565b6000610694826113ed565b6106d3576040517f08c379a00000000000000000000000000000000000000000000000000000000081526004016106ca90613138565b60405180910390fd5b6004600083815260200190815260200160002060009054906101000a900473ffffffffffffffffffffffffffffffffffffffff169050919050565b600061071982610b4d565b90508073ffffffffffffffffffffffffffffffffffffffff168373ffffffffffffffffffffffffffffffffffffffff16141561078a576040517f08c379a0000000000000000000000000000000000000000000000000000000008152600401610781906131b8565b60405180910390fd5b8073ffffffffffffffffffffffffffffffffffffffff166107a9611459565b73ffffffffffffffffffffffffffffffffffffffff1614806107d857506107d7816107d2611459565b6111e1565b5b610817576040517f08c379a000000000000000000000000000000000000000000000000000000000815260040161080e90613078565b60405180910390fd5b6108218383611461565b505050565b80610831600861151a565b600b5461083e91906133d8565b101561087f576040517f08c379a000000000000000000000000000000000000000000000000000000000815260040161087690613038565b60405180910390fd5b80600a5461088d919061337e565b34101561089957600080fd5b600c548111156108de576040517f08c379a00000000000000000000000000000000000000000000000000000000081526004016108d5906131d8565b60405180910390fd5b60005b818110156109b65760006108f5600861151a565b90506000600961090483611528565b604051602001610915929190612e34565b604051602081830303815290604052905061093033836116d5565b61093a82826116f3565b61095e60405180606001604052806027815260200161369860279139833384611767565b610968600861136d565b7fe18182a03a604ab0b376eb964dc1683954edd372b55a524302d614ed9d8afb6a3383604051610999929190612edf565b60405180910390a1505080806109ae906134f4565b9150506108e1565b506109c86109c333610c8d565b611809565b50565b600c5481565b6109e26109dc611459565b826118a2565b610a21576040517f08c379a0000000000000000000000000000000000000000000000000000000008152600401610a18906131f8565b60405180910390fd5b610a2c838383611980565b505050565b610a39611459565b73ffffffffffffffffffffffffffffffffffffffff16610a57610dcd565b73ffffffffffffffffffffffffffffffffffffffff1614610aad576040517f08c379a0000000000000000000000000000000000000000000000000000000008152600401610aa490613158565b60405180910390fd5b6000610ab7610dcd565b73ffffffffffffffffffffffffffffffffffffffff1647604051610ada90612e63565b60006040518083038185875af1925050503d8060008114610b17576040519150601f19603f3d011682016040523d82523d6000602084013e610b1c565b606091505b5050905080610b2a57600080fd5b50565b610b488383836040518060200160405280600081525061100a565b505050565b6000806002600084815260200190815260200160002060009054906101000a900473ffffffffffffffffffffffffffffffffffffffff169050600073ffffffffffffffffffffffffffffffffffffffff168173ffffffffffffffffffffffffffffffffffffffff161415610bf6576040517f08c379a0000000000000000000000000000000000000000000000000000000008152600401610bed906130b8565b60405180910390fd5b80915050919050565b60098054610c0c906134c2565b80601f0160208091040260200160405190810160405280929190818152602001828054610c38906134c2565b8015610c855780601f10610c5a57610100808354040283529160200191610c85565b820191906000526020600020905b815481529060010190602001808311610c6857829003601f168201915b505050505081565b60008073ffffffffffffffffffffffffffffffffffffffff168273ffffffffffffffffffffffffffffffffffffffff161415610cfe576040517f08c379a0000000000000000000000000000000000000000000000000000000008152600401610cf590613098565b60405180910390fd5b600360008373ffffffffffffffffffffffffffffffffffffffff1673ffffffffffffffffffffffffffffffffffffffff168152602001908152602001600020549050919050565b610d4d611459565b73ffffffffffffffffffffffffffffffffffffffff16610d6b610dcd565b73ffffffffffffffffffffffffffffffffffffffff1614610dc1576040517f08c379a0000000000000000000000000000000000000000000000000000000008152600401610db890613158565b60405180910390fd5b610dcb6000611bdc565b565b6000600760009054906101000a900473ffffffffffffffffffffffffffffffffffffffff16905090565b606060018054610e06906134c2565b80601f0160208091040260200160405190810160405280929190818152602001828054610e32906134c2565b8015610e7f5780601f10610e5457610100808354040283529160200191610e7f565b820191906000526020600020905b815481529060010190602001808311610e6257829003601f168201915b5050505050905090565b610e91611459565b73ffffffffffffffffffffffffffffffffffffffff168273ffffffffffffffffffffffffffffffffffffffff161415610eff576040517f08c379a0000000000000000000000000000000000000000000000000000000008152600401610ef690613018565b60405180910390fd5b8060056000610f0c611459565b73ffffffffffffffffffffffffffffffffffffffff1673ffffffffffffffffffffffffffffffffffffffff16815260200190815260200160002060008473ffffffffffffffffffffffffffffffffffffffff1673ffffffffffffffffffffffffffffffffffffffff16815260200190815260200160002060006101000a81548160ff0219169083151502179055508173ffffffffffffffffffffffffffffffffffffffff16610fb9611459565b73ffffffffffffffffffffffffffffffffffffffff167f17307eab39ab6107e8899845ad3d59bd9653f200f220920489ca2b5937696c3183604051610ffe9190612f08565b60405180910390a35050565b61101b611015611459565b836118a2565b61105a576040517f08c379a0000000000000000000000000000000000000000000000000000000008152600401611051906131f8565b60405180910390fd5b61106684848484611ca2565b50505050565b6060611077826113ed565b6110b6576040517f08c379a00000000000000000000000000000000000000000000000000000000081526004016110ad90613118565b60405180910390fd5b60006006600084815260200190815260200160002080546110d6906134c2565b80601f0160208091040260200160405190810160405280929190818152602001828054611102906134c2565b801561114f5780601f106111245761010080835404028352916020019161114f565b820191906000526020600020905b81548152906001019060200180831161113257829003601f168201915b505050505090506000611160611cfe565b90506000815114156111765781925050506111b9565b6000825111156111ab578082604051602001611193929190612e10565b604051602081830303815290604052925050506111b9565b6111b484611d15565b925050505b919050565b600b5481565b600060016111d2600861151a565b6111dc91906133d8565b905090565b6000600560008473ffffffffffffffffffffffffffffffffffffffff1673ffffffffffffffffffffffffffffffffffffffff16815260200190815260200160002060008373ffffffffffffffffffffffffffffffffffffffff1673ffffffffffffffffffffffffffffffffffffffff16815260200190815260200160002060009054906101000a900460ff16905092915050565b61127d611459565b73ffffffffffffffffffffffffffffffffffffffff1661129b610dcd565b73ffffffffffffffffffffffffffffffffffffffff16146112f1576040517f08c379a00000000000000000000000000000000000000000000000000000000081526004016112e890613158565b60405180910390fd5b600073ffffffffffffffffffffffffffffffffffffffff168173ffffffffffffffffffffffffffffffffffffffff161415611361576040517f08c379a000000000000000000000000000000000000000000000000000000000815260040161135890612fb8565b60405180910390fd5b61136a81611bdc565b50565b6001816000016000828254019250508190555050565b60007f01ffc9a7000000000000000000000000000000000000000000000000000000007bffffffffffffffffffffffffffffffffffffffffffffffffffffffff1916827bffffffffffffffffffffffffffffffffffffffffffffffffffffffff1916149050919050565b60008073ffffffffffffffffffffffffffffffffffffffff166002600084815260200190815260200160002060009054906101000a900473ffffffffffffffffffffffffffffffffffffffff1673ffffffffffffffffffffffffffffffffffffffff1614159050919050565b600033905090565b816004600083815260200190815260200160002060006101000a81548173ffffffffffffffffffffffffffffffffffffffff021916908373ffffffffffffffffffffffffffffffffffffffff160217905550808273ffffffffffffffffffffffffffffffffffffffff166114d483610b4d565b73ffffffffffffffffffffffffffffffffffffffff167f8c5be1e5ebec7d5bd14f71427d1e84f3dd0314c0f7b2291e5b200ac8c7c3b92560405160405180910390a45050565b600081600001549050919050565b60606000821415611570576040518060400160405280600181526020017f300000000000000000000000000000000000000000000000000000000000000081525090506116d0565b600082905060005b600082146115a257808061158b906134f4565b915050600a8261159b919061334d565b9150611578565b60008167ffffffffffffffff8111156115e4577f4e487b7100000000000000000000000000000000000000000000000000000000600052604160045260246000fd5b6040519080825280601f01601f1916602001820160405280156116165781602001600182028036833780820191505090505b5090505b600085146116c95760018261162f91906133d8565b9150600a8561163e919061353d565b603061164a91906132f7565b60f81b818381518110611686577f4e487b7100000000000000000000000000000000000000000000000000000000600052603260045260246000fd5b60200101907effffffffffffffffffffffffffffffffffffffffffffffffffffffffffffff1916908160001a905350600a856116c2919061334d565b945061161a565b8093505050505b919050565b6116ef828260405180602001604052806000815250611dbc565b5050565b6116fc826113ed565b61173b576040517f08c379a0000000000000000000000000000000000000000000000000000000008152600401611732906130d8565b60405180910390fd5b806006600084815260200190815260200160002090805190602001906117629291906121bd565b505050565b611803848484846040516024016117819493929190612f45565b6040516020818303038152906040527f3254c2e8000000000000000000000000000000000000000000000000000000007bffffffffffffffffffffffffffffffffffffffffffffffffffffffff19166020820180517bffffffffffffffffffffffffffffffffffffffffffffffffffffffff8381831617835250505050611e17565b50505050565b61189f8160405160240161181d9190613218565b6040516020818303038152906040527ff5b1bba9000000000000000000000000000000000000000000000000000000007bffffffffffffffffffffffffffffffffffffffffffffffffffffffff19166020820180517bffffffffffffffffffffffffffffffffffffffffffffffffffffffff8381831617835250505050611e17565b50565b60006118ad826113ed565b6118ec576040517f08c379a00000000000000000000000000000000000000000000000000000000081526004016118e390613058565b60405180910390fd5b60006118f783610b4d565b90508073ffffffffffffffffffffffffffffffffffffffff168473ffffffffffffffffffffffffffffffffffffffff16148061196657508373ffffffffffffffffffffffffffffffffffffffff1661194e84610689565b73ffffffffffffffffffffffffffffffffffffffff16145b80611977575061197681856111e1565b5b91505092915050565b8273ffffffffffffffffffffffffffffffffffffffff166119a082610b4d565b73ffffffffffffffffffffffffffffffffffffffff16146119f6576040517f08c379a00000000000000000000000000000000000000000000000000000000081526004016119ed90613178565b60405180910390fd5b600073ffffffffffffffffffffffffffffffffffffffff168273ffffffffffffffffffffffffffffffffffffffff161415611a66576040517f08c379a0000000000000000000000000000000000000000000000000000000008152600401611a5d90612ff8565b60405180910390fd5b611a71838383611e40565b611a7c600082611461565b6001600360008573ffffffffffffffffffffffffffffffffffffffff1673ffffffffffffffffffffffffffffffffffffffff1681526020019081526020016000206000828254611acc91906133d8565b925050819055506001600360008473ffffffffffffffffffffffffffffffffffffffff1673ffffffffffffffffffffffffffffffffffffffff1681526020019081526020016000206000828254611b2391906132f7565b92505081905550816002600083815260200190815260200160002060006101000a81548173ffffffffffffffffffffffffffffffffffffffff021916908373ffffffffffffffffffffffffffffffffffffffff160217905550808273ffffffffffffffffffffffffffffffffffffffff168473ffffffffffffffffffffffffffffffffffffffff167fddf252ad1be2c89b69c2b068fc378daa952ba7f163c4a11628f55a4df523b3ef60405160405180910390a4505050565b6000600760009054906101000a900473ffffffffffffffffffffffffffffffffffffffff16905081600760006101000a81548173ffffffffffffffffffffffffffffffffffffffff021916908373ffffffffffffffffffffffffffffffffffffffff1602179055508173ffffffffffffffffffffffffffffffffffffffff168173ffffffffffffffffffffffffffffffffffffffff167f8be0079c531659141344cd1fd0a4f28419497f9722a3daafe3b4186f6b6457e060405160405180910390a35050565b611cad848484611980565b611cb984848484611e45565b611cf8576040517f08c379a0000000000000000000000000000000000000000000000000000000008152600401611cef90612f98565b60405180910390fd5b50505050565b606060405180602001604052806000815250905090565b6060611d20826113ed565b611d5f576040517f08c379a0000000000000000000000000000000000000000000000000000000008152600401611d5690613198565b60405180910390fd5b6000611d69611cfe565b90506000815111611d895760405180602001604052806000815250611db4565b80611d9384611528565b604051602001611da4929190612e10565b6040516020818303038152906040525b915050919050565b611dc68383611fdc565b611dd36000848484611e45565b611e12576040517f08c379a0000000000000000000000000000000000000000000000000000000008152600401611e0990612f98565b60405180910390fd5b505050565b60008151905060006a636f6e736f6c652e6c6f679050602083016000808483855afa5050505050565b505050565b6000611e668473ffffffffffffffffffffffffffffffffffffffff166121aa565b15611fcf578373ffffffffffffffffffffffffffffffffffffffff1663150b7a02611e8f611459565b8786866040518563ffffffff1660e01b8152600401611eb19493929190612e93565b602060405180830381600087803b158015611ecb57600080fd5b505af1925050508015611efc57506040513d601f19601f82011682018060405250810190611ef99190612501565b60015b611f7f573d8060008114611f2c576040519150601f19603f3d011682016040523d82523d6000602084013e611f31565b606091505b50600081511415611f77576040517f08c379a0000000000000000000000000000000000000000000000000000000008152600401611f6e90612f98565b60405180910390fd5b805181602001fd5b63150b7a0260e01b7bffffffffffffffffffffffffffffffffffffffffffffffffffffffff1916817bffffffffffffffffffffffffffffffffffffffffffffffffffffffff191614915050611fd4565b600190505b949350505050565b600073ffffffffffffffffffffffffffffffffffffffff168273ffffffffffffffffffffffffffffffffffffffff16141561204c576040517f08c379a0000000000000000000000000000000000000000000000000000000008152600401612043906130f8565b60405180910390fd5b612055816113ed565b15612095576040517f08c379a000000000000000000000000000000000000000000000000000000000815260040161208c90612fd8565b60405180910390fd5b6120a160008383611e40565b6001600360008473ffffffffffffffffffffffffffffffffffffffff1673ffffffffffffffffffffffffffffffffffffffff16815260200190815260200160002060008282546120f191906132f7565b92505081905550816002600083815260200190815260200160002060006101000a81548173ffffffffffffffffffffffffffffffffffffffff021916908373ffffffffffffffffffffffffffffffffffffffff160217905550808273ffffffffffffffffffffffffffffffffffffffff16600073ffffffffffffffffffffffffffffffffffffffff167fddf252ad1be2c89b69c2b068fc378daa952ba7f163c4a11628f55a4df523b3ef60405160405180910390a45050565b600080823b905060008111915050919050565b8280546121c9906134c2565b90600052602060002090601f0160209004810192826121eb5760008555612232565b82601f1061220457805160ff1916838001178555612232565b82800160010185558215612232579182015b82811115612231578251825591602001919060010190612216565b5b50905061223f9190612243565b5090565b5b8082111561225c576000816000905550600101612244565b5090565b600061227361226e84613264565b613233565b90508281526020810184848401111561228b57600080fd5b612296848285613480565b509392505050565b6000813590506122ad8161363b565b92915050565b6000813590506122c281613652565b92915050565b6000813590506122d781613669565b92915050565b6000815190506122ec81613669565b92915050565b600082601f83011261230357600080fd5b8135612313848260208601612260565b91505092915050565b60008135905061232b81613680565b92915050565b60006020828403121561234357600080fd5b60006123518482850161229e565b91505092915050565b6000806040838503121561236d57600080fd5b600061237b8582860161229e565b925050602061238c8582860161229e565b9150509250929050565b6000806000606084860312156123ab57600080fd5b60006123b98682870161229e565b93505060206123ca8682870161229e565b92505060406123db8682870161231c565b9150509250925092565b600080600080608085870312156123fb57600080fd5b60006124098782880161229e565b945050602061241a8782880161229e565b935050604061242b8782880161231c565b925050606085013567ffffffffffffffff81111561244857600080fd5b612454878288016122f2565b91505092959194509250565b6000806040838503121561247357600080fd5b60006124818582860161229e565b9250506020612492858286016122b3565b9150509250929050565b600080604083850312156124af57600080fd5b60006124bd8582860161229e565b92505060206124ce8582860161231c565b9150509250929050565b6000602082840312156124ea57600080fd5b60006124f8848285016122c8565b91505092915050565b60006020828403121561251357600080fd5b6000612521848285016122dd565b91505092915050565b60006020828403121561253c57600080fd5b600061254a8482850161231c565b91505092915050565b61255c8161340c565b82525050565b61256b8161341e565b82525050565b600061257c826132a9565b61258681856132bf565b935061259681856020860161348f565b61259f8161362a565b840191505092915050565b60006125b5826132b4565b6125bf81856132db565b93506125cf81856020860161348f565b6125d88161362a565b840191505092915050565b60006125ee826132b4565b6125f881856132ec565b935061260881856020860161348f565b80840191505092915050565b60008154612621816134c2565b61262b81866132ec565b9450600182166000811461264657600181146126575761268a565b60ff1983168652818601935061268a565b61266085613294565b60005b8381101561268257815481890152600182019150602081019050612663565b838801955050505b50505092915050565b60006126a06032836132db565b91507f4552433732313a207472616e7366657220746f206e6f6e20455243373231526560008301527f63656976657220696d706c656d656e74657200000000000000000000000000006020830152604082019050919050565b60006127066026836132db565b91507f4f776e61626c653a206e6577206f776e657220697320746865207a65726f206160008301527f64647265737300000000000000000000000000000000000000000000000000006020830152604082019050919050565b600061276c601c836132db565b91507f4552433732313a20746f6b656e20616c7265616479206d696e746564000000006000830152602082019050919050565b60006127ac6024836132db565b91507f4552433732313a207472616e7366657220746f20746865207a65726f2061646460008301527f72657373000000000000000000000000000000000000000000000000000000006020830152604082019050919050565b60006128126019836132db565b91507f4552433732313a20617070726f766520746f2063616c6c6572000000000000006000830152602082019050919050565b6000612852601b836132db565b91507f4572726f72203a20746f6b656e732061726520736f6c64206f757400000000006000830152602082019050919050565b6000612892602c836132db565b91507f4552433732313a206f70657261746f7220717565727920666f72206e6f6e657860008301527f697374656e7420746f6b656e00000000000000000000000000000000000000006020830152604082019050919050565b60006128f86038836132db565b91507f4552433732313a20617070726f76652063616c6c6572206973206e6f74206f7760008301527f6e6572206e6f7220617070726f76656420666f7220616c6c00000000000000006020830152604082019050919050565b600061295e602a836132db565b91507f4552433732313a2062616c616e636520717565727920666f7220746865207a6560008301527f726f2061646472657373000000000000000000000000000000000000000000006020830152604082019050919050565b60006129c46029836132db565b91507f4552433732313a206f776e657220717565727920666f72206e6f6e657869737460008301527f656e7420746f6b656e00000000000000000000000000000000000000000000006020830152604082019050919050565b6000612a2a602e836132db565b91507f45524337323155524953746f726167653a2055524920736574206f66206e6f6e60008301527f6578697374656e7420746f6b656e0000000000000000000000000000000000006020830152604082019050919050565b6000612a906020836132db565b91507f4552433732313a206d696e7420746f20746865207a65726f20616464726573736000830152602082019050919050565b6000612ad06031836132db565b91507f45524337323155524953746f726167653a2055524920717565727920666f722060008301527f6e6f6e6578697374656e7420746f6b656e0000000000000000000000000000006020830152604082019050919050565b6000612b36602c836132db565b91507f4552433732313a20617070726f76656420717565727920666f72206e6f6e657860008301527f697374656e7420746f6b656e00000000000000000000000000000000000000006020830152604082019050919050565b6000612b9c6005836132ec565b91507f2e6a736f6e0000000000000000000000000000000000000000000000000000006000830152600582019050919050565b6000612bdc6020836132db565b91507f4f776e61626c653a2063616c6c6572206973206e6f7420746865206f776e65726000830152602082019050919050565b6000612c1c6029836132db565b91507f4552433732313a207472616e73666572206f6620746f6b656e2074686174206960008301527f73206e6f74206f776e00000000000000000000000000000000000000000000006020830152604082019050919050565b6000612c82602f836132db565b91507f4552433732314d657461646174613a2055524920717565727920666f72206e6f60008301527f6e6578697374656e7420746f6b656e00000000000000000000000000000000006020830152604082019050919050565b6000612ce86021836132db565b91507f4552433732313a20617070726f76616c20746f2063757272656e74206f776e6560008301527f72000000000000000000000000000000000000000000000000000000000000006020830152604082019050919050565b6000612d4e6014836132db565b91507f4552524f52203a206e65656420746f20706179200000000000000000000000006000830152602082019050919050565b6000612d8e6000836132d0565b9150600082019050919050565b6000612da86031836132db565b91507f4552433732313a207472616e736665722063616c6c6572206973206e6f74206f60008301527f776e6572206e6f7220617070726f7665640000000000000000000000000000006020830152604082019050919050565b612e0a81613476565b82525050565b6000612e1c82856125e3565b9150612e2882846125e3565b91508190509392505050565b6000612e408285612614565b9150612e4c82846125e3565b9150612e5782612b8f565b91508190509392505050565b6000612e6e82612d81565b9150819050919050565b6000602082019050612e8d6000830184612553565b92915050565b6000608082019050612ea86000830187612553565b612eb56020830186612553565b612ec26040830185612e01565b8181036060830152612ed48184612571565b905095945050505050565b6000604082019050612ef46000830185612553565b612f016020830184612e01565b9392505050565b6000602082019050612f1d6000830184612562565b92915050565b60006020820190508181036000830152612f3d81846125aa565b905092915050565b60006080820190508181036000830152612f5f81876125aa565b9050612f6e6020830186612e01565b612f7b6040830185612553565b8181036060830152612f8d81846125aa565b905095945050505050565b60006020820190508181036000830152612fb181612693565b9050919050565b60006020820190508181036000830152612fd1816126f9565b9050919050565b60006020820190508181036000830152612ff18161275f565b9050919050565b600060208201905081810360008301526130118161279f565b9050919050565b6000602082019050818103600083015261303181612805565b9050919050565b6000602082019050818103600083015261305181612845565b9050919050565b6000602082019050818103600083015261307181612885565b9050919050565b60006020820190508181036000830152613091816128eb565b9050919050565b600060208201905081810360008301526130b181612951565b9050919050565b600060208201905081810360008301526130d1816129b7565b9050919050565b600060208201905081810360008301526130f181612a1d565b9050919050565b6000602082019050818103600083015261311181612a83565b9050919050565b6000602082019050818103600083015261313181612ac3565b9050919050565b6000602082019050818103600083015261315181612b29565b9050919050565b6000602082019050818103600083015261317181612bcf565b9050919050565b6000602082019050818103600083015261319181612c0f565b9050919050565b600060208201905081810360008301526131b181612c75565b9050919050565b600060208201905081810360008301526131d181612cdb565b9050919050565b600060208201905081810360008301526131f181612d41565b9050919050565b6000602082019050818103600083015261321181612d9b565b9050919050565b600060208201905061322d6000830184612e01565b92915050565b6000604051905081810181811067ffffffffffffffff8211171561325a576132596135fb565b5b8060405250919050565b600067ffffffffffffffff82111561327f5761327e6135fb565b5b601f19601f8301169050602081019050919050565b60008190508160005260206000209050919050565b600081519050919050565b600081519050919050565b600082825260208201905092915050565b600081905092915050565b600082825260208201905092915050565b600081905092915050565b600061330282613476565b915061330d83613476565b9250827fffffffffffffffffffffffffffffffffffffffffffffffffffffffffffffffff038211156133425761334161356e565b5b828201905092915050565b600061335882613476565b915061336383613476565b9250826133735761337261359d565b5b828204905092915050565b600061338982613476565b915061339483613476565b9250817fffffffffffffffffffffffffffffffffffffffffffffffffffffffffffffffff04831182151516156133cd576133cc61356e565b5b828202905092915050565b60006133e382613476565b91506133ee83613476565b9250828210156134015761340061356e565b5b828203905092915050565b600061341782613456565b9050919050565b60008115159050919050565b60007fffffffff0000000000000000000000000000000000000000000000000000000082169050919050565b600073ffffffffffffffffffffffffffffffffffffffff82169050919050565b6000819050919050565b82818337600083830152505050565b60005b838110156134ad578082015181840152602081019050613492565b838111156134bc576000848401525b50505050565b600060028204905060018216806134da57607f821691505b602082108114156134ee576134ed6135cc565b5b50919050565b60006134ff82613476565b91507fffffffffffffffffffffffffffffffffffffffffffffffffffffffffffffffff8214156135325761353161356e565b5b600182019050919050565b600061354882613476565b915061355383613476565b9250826135635761356261359d565b5b828206905092915050565b7f4e487b7100000000000000000000000000000000000000000000000000000000600052601160045260246000fd5b7f4e487b7100000000000000000000000000000000000000000000000000000000600052601260045260246000fd5b7f4e487b7100000000000000000000000000000000000000000000000000000000600052602260045260246000fd5b7f4e487b7100000000000000000000000000000000000000000000000000000000600052604160045260246000fd5b6000601f19601f8301169050919050565b6136448161340c565b811461364f57600080fd5b50565b61365b8161341e565b811461366657600080fd5b50565b6136728161342a565b811461367d57600080fd5b50565b61368981613476565b811461369457600080fd5b5056fe4d6f6e6b6520232573206d696e74656420627920257320772f206d65746164617461203a202573a26469706673582212200bb1e8209b69b157b077b350cc2cd2fbc6178564806e38a56683d21c139d8ce664736f6c63430008000033",
    "linkReferences": {},
    "deployedLinkReferences": {}
}